:020000040000fa
:080000000002040000000000f2
:020000040000fa
:04000800da03000017
:020000040000fa
:04000c00da03000013
:020000040000fa
:04001000da0300000f
:020000040000fa
:04001400da0300000b
:020000040000fa
:04001800da03000007
:020000040000fa
:04001c00da03000003
:020000040000fa
:04002000da030000ff
:020000040000fa
:04002400da030000fb
:020000040000fa
:04002800da030000f7
:020000040000fa
:04002c00da030000f3
:020000040000fa
:04003000da030000ef
:020000040000fa
:0400340004030000c1
:020000040000fa
:04003800da030000e7
:020000040000fa
:04003c00da030000e3
:020000040000fa
:04004000da030000df
:020000040000fa
:04004400da030000db
:020000040000fa
:040048004003000071
:020000040000fa
:04004c00da030000d3
:020000040000fa
:04005000da030000cf
:020000040000fa
:04005400da030000cb
:020000040000fa
:04005800da030000c7
:020000040000fa
:04005c00b6030000e7
:020000040000fa
:04006000da030000bf
:020000040000fa
:04006400da030000bb
:020000040000fa
:04006800da030000b7
:020000040000fa
:04006c00da030000b3
:020000040000fa
:04007000da030000af
:020000040000fa
:04007400da030000ab
:020000040000fa
:04007800da030000a7
:020000040000fa
:04007c00da030000a3
:020000040000fa
:04008000da0300009f
:020000040000fa
:04008400da0300009b
:020000040000fa
:04008800da03000097
:020000040000fa
:04008c00da03000093
:020000040000fa
:04009000da0300008f
:020000040000fa
:040094008a030000db
:020000040000fa
:04009800da03000087
:020000040000fa
:04009c00da03000083
:020000040000fa
:0400a000da0300007f
:020000040000fa
:0400a400da0300007b
:020000040000fa
:0400a800da03000077
:020000040000fa
:0400ac00da03000073
:020000040000fa
:0400b000da0300006f
:020000040000fa
:0400b400da0300006b
:020000040000fa
:0400b800da03000067
:020000040000fa
:0400bc00da03000063
:020000040000fa
:0400c000da0300005f
:020000040000fa
:0400c400da0300005b
:020000040000fa
:0400c800da03000057
:020000040000fa
:0400cc00da03000053
:020000040000fa
:0400d000da0300004f
:020000040000fa
:0400d400da0300004b
:020000040000fa
:0400d800da03000047
:020000040000fa
:0400dc00da03000043
:020000040000fa
:0400e000da0300003f
:020000040000fa
:0400e400da0300003b
:020000040000fa
:0400e800da03000037
:020000040000fa
:0400ec00da03000033
:020000040000fa
:0400f000da0300002f
:020000040000fa
:0400f400da0300002b
:020000040000fa
:0400f800da03000027
:020000040000fa
:0400fc00da03000023
:020000040000fa
:04010000da0300001e
:020000040000fa
:04010400da0300001a
:020000040000fa
:04010800da03000016
:020000040000fa
:04010c00da03000012
:020000040000fa
:04011000da0300000e
:020000040000fa
:04011400da0300000a
:020000040000fa
:04011800da03000006
:020000040000fa
:04011c00da03000002
:020000040000fa
:04012000da030000fe
:020000040000fa
:04012400da030000fa
:020000040000fa
:04012800da030000f6
:020000040000fa
:04012c00da030000f2
:020000040000fa
:04013000da030000ee
:020000040000fa
:04013400da030000ea
:020000040000fa
:04013800da030000e6
:020000040000fa
:04013c00da030000e2
:020000040000fa
:04014000da030000de
:020000040000fa
:04014400da030000da
:020000040000fa
:04014800da030000d6
:020000040000fa
:04014c00da030000d2
:020000040000fa
:04015000da030000ce
:020000040000fa
:04015400da030000ca
:020000040000fa
:04015800da030000c6
:020000040000fa
:04015c00da030000c2
:020000040000fa
:04016000da030000be
:020000040000fa
:04016400da030000ba
:020000040000fa
:04016800da030000b6
:020000040000fa
:04016c00da030000b2
:020000040000fa
:04017000da030000ae
:020000040000fa
:04017400da030000aa
:020000040000fa
:04017800da030000a6
:020000040000fa
:04017c00da030000a2
:020000040000fa
:04018000da0300009e
:020000040000fa
:04018400da0300009a
:020000040000fa
:04018800da03000096
:020000040000fa
:04018c00da03000092
:020000040000fa
:04019000da0300008e
:020000040000fa
:04019400da0300008a
:020000040000fa
:04019800da03000086
:020000040000fa
:04019c00da03000082
:020000040000fa
:0401a000da0300007e
:020000040000fa
:0401a400da0300007a
:020000040000fa
:0401a800da03000076
:020000040000fa
:0401ac00da03000072
:020000040000fa
:0401b000da0300006e
:020000040000fa
:0401b400da0300006a
:020000040000fa
:0401b800da03000066
:020000040000fa
:0401bc00da03000062
:020000040000fa
:0401c000da0300005e
:020000040000fa
:0401c400da0300005a
:020000040000fa
:0401c800da03000056
:020000040000fa
:0401cc00da03000052
:020000040000fa
:0401d000da0300004e
:020000040000fa
:0401d400da0300004a
:020000040000fa
:0401d800da03000046
:020000040000fa
:0401dc00da03000042
:020000040000fa
:0401e000da0300003e
:020000040000fa
:0401e400da0300003a
:020000040000fa
:0401e800da03000036
:020000040000fa
:0401ec00da03000032
:020000040000fa
:0401f000da0300002e
:020000040000fa
:0401f400da0300002a
:020000040000fa
:0401f800da03000026
:020000040000fa
:0401fc00da03000022
:020000040000fa
:04020000da0300001d
:020000040000fa
:04020400da03000019
:020000040000fa
:04020800da03000015
:020000040000fa
:04020c00da03000011
:020000040000fa
:04021000da0300000d
:020000040000fa
:04021400da03000009
:020000040000fa
:04021800da03000005
:020000040000fa
:04021c00da03000001
:020000040000fa
:04022000da030000fd
:020000040000fa
:04022400da030000f9
:020000040000fa
:04022800da030000f5
:020000040000fa
:04022c00da030000f1
:020000040000fa
:04023000da030000ed
:020000040000fa
:04023400da030000e9
:020000040000fa
:04023800da030000e5
:020000040000fa
:04023c00da030000e1
:020000040000fa
:04024000da030000dd
:020000040000fa
:04024400da030000d9
:020000040000fa
:04024800da030000d5
:020000040000fa
:04024c00da030000d1
:020000040000fa
:04025000da030000cd
:020000040000fa
:04025400da030000c9
:020000040000fa
:04025800da030000c5
:020000040000fa
:04025c00da030000c1
:020000040000fa
:04026000da030000bd
:020000040000fa
:04026400da030000b9
:020000040000fa
:100400006f0421000eff27000e018800000000008d
:10041000000020000000e000020032000001200087
:100420002002880018000700e40007000000e00038
:1004300003003a00c07021000100200002003700d4
:100440000000200001002000810f70000200320037
:100450000001eb0012000700100007000000200060
:100460000000e00002003200000002000000000076
:100470007f040700060e0200000000008d04070044
:100480000040da000000fe00200020000000e00034
:1004900002003200100020009001880000000600d9
:1004a000a1028800800478000000eb0020003700e3
:1004b0000a054100e284440054a0b4009905ba0042
:1004c000e284440054a0b4009906ba00e2844400d7
:1004d00054a0b4000006eb00476fde00fd07b20039
:1004e000ae018800636ce10003003a000ad8010005
:1004f0000000eb000e003700606ce10008003a00dd
:10050000004deb000a05e800020039003420ec0041
:100510000af0a0008b05e900f9ff3e000400370057
:100520006168e100010032000086eb000b0007006b
:1005300019c7ba000e04e0001905ba0003003a001a
:100540000a00e000daff3a0000000600fe07b200f1
:10055000ae0288008a047800f5ff37000cd0a300b3
:10056000e20f4d001c003b0089027800354dba00b7
:100570000a05e800020039003420ec000af0a0006f
:100580008b05e9000f003200254dba000a05e8008e
:10059000020039003420ec000af0a0008b05e900cd
:1005a000080032000c00e0000600320015cdba0051
:1005b0000a05e800020039003420ec000af0a0002f
:1005c0008b05e9008984e80054a0b4000b00e0002a
:1005d000e2ff3a00000006009902ba00055d7800cb
:1005e0008b05e900f7ff3200c82ade00055d7800c0
:1005f0008b05e900f3ff32000c00e000f1ff320050
:1006000019ddba00eeff37003600f800809fbe000b
:10061000829fbe00849fbe00869fbe000000fa003d
:100620000068a90021708000002020000080600088
:1006300000f0a7000000ea000000e9004f00de0023
:10064000004078000080fb00610060004900dd0090
:10065000217080000190a1000100700020708800ce
:10066000b50907000080fa004f03be004f02be002c
:100670004f01be004f00be003600f90000400600ea
:100680003600f800809fbe00829fbe00849fbe009f
:10069000869fbe000000fa000108a90008d0bf0034
:1006a0000004e0000b003a000001eb000000200015
:1006b000011a24007f08070012002000000020001b
:1006c000011a24007b08070010c0b30008f0b7002f
:1006d000090037000001eb0000002000011a2c0087
:1006e000740807001200200000002000011a2c00ee
:1006f000700807000870ef000080fa004f03be008a
:100700004f02be004f01be004f00be003600f90090
:10071000004006003600f800809fbe00829fbe00a9
:10072000849fbe00869fbe000000fa000368a900f7
:10073000508080006180800061004000e0804800bf
:1007400050808800618088005b04070088070700ec
:100750000080fa004f03be004f02be004f01be00f2
:100760004f00be003600f90000400600801f7800f0
:100770000000fa0001a8a90010188000d0818800ac
:1007800020188000e081880030188000f081880007
:1007900040188000008288000018800010828800c5
:1007a00010c0b30011f0b7000080fa004f007800cd
:1007b000004006000040da000000fe0000000500d6
:1007c00014002000c4033700f4ff2f00c2033700d9
:1007d0000001be003c0007000470a70003f0a10068
:1007e0006509b100160032000d0035006828e100ef
:1007f00006003500f0ff2f00f1ff27000300e000a6
:1008000013003b000100280000000500000040002c
:10081000818048008502e900fcff3a0008003700ab
:10082000f88f420002003c008000eb000000050051
:100830008100d1000080d3008502e800fcff3a006f
:100840000300e00002003b0060001000e0801800a0
:10085000000006000001be001b0007000470a70096
:1008600003f0a10003f8a30013003a006509b100ea
:1008700010003200090035006928e100020035004f
:1008800001002800000005000000400081804800b1
:100890008502e900fcff3a0000000600f88f4200e4
:1008a000050035008100d1000080d3008502e800fa
:1008b000fcff3a00000006008000eb00000005008d
:1008c0006011b8009f033700c70ade00f107b200cd
:1008d000f50fb20008003200e1cf42000200320002
:1008e0000170a00024000500810f7000010032009b
:1008f0000408050044000500810f700002003a0062
:10090000140005008502e9000000400081c0480095
:10091000fcff3b000170a0002400050007f8270041
:10092000078361000638e10004003a00f707200061
:10093000878361008703710001003a0003f0a20081
:10094000889fbe008a9fbe008c9fbe00470ade00c3
:100950000480a100c71ade000580a100070028005e
:100960000785600087856100f70f20000720e10000
:100970009e0032000728e1009c003200010678004a
:100980000400e000b4003200f70720008780600018
:100990000170a0000500e000c0003200f707200051
:1009a000878161000370a000050652000f003a0025
:1009b0000b50e1000b0032000308e10002003a0096
:1009c0000200e1007e0032000204500083845800df
:1009d000040031000001fd008101fd008402fd00e2
:1009e0008a05fd006044b800210037000520e100c1
:1009f00005003d000001fd008101fd008402fd00b5
:100a00008a05fd00050652007a60e1000500350008
:100a10000170a1004722dd00848070008a80700090
:100a2000630037006044b800ef02660007ff2f0044
:100a3000070666000500e00006003400f08312009f
:100a40008714dd000511de00071bdd0006017100c3
:100a50008519de007060e1000500350009047800aa
:100a600082047800030178008001eb0070065600d4
:100a70000b50e10003003a00020040008380480070
:100a80000400370060041400e0841c0002005800d9
:100a9000838058000188a300060032008100d10045
:100aa0000080d3008984d3000884d3000402e800c6
:100ab000270037000178a30025003a000100e0007c
:100ac000030032008186cf00698656000a00370095
:100ad0008c0020000000e00004003a0009007800cb
:100ae000880478000004eb00700252008086cf007a
:100af0000d0646000c06e9007060e10006003500b6
:100b00008000780009007800880478000004eb0079
:100b100070065600700252000c00e0000c00340019
:100b20008c08dd00f00316000703de0086807000ed
:100b30000c00dd00074bde00060070008c4cdd0071
:100b40000743de00868474000c44dd000c02520072
:100b50006120e100200035006101600007002800ed
:100b600087816400f7ff2700878364000703740010
:100b70000300e0000600320082037300040032002c
:100b80000000e800e08048000188a3000e003a0061
:100b9000f70f20000720e1004a003d000170a1008e
:100ba0004722dd00810072008a8070000000be00d4
:100bb0004f06be004f05be004f04be0000000600f9
:100bc0006000b800faff37008100d1000080d30038
:100bd0000402e800eeff3700040178008901740088
:100be000a10107008a807000f1ff3700f7010700bc
:100bf000070278000001fd008101fd00f3010700fc
:100c000087027800850372000778a3000400320091
:100c10000001fd008101fd0006020700e4ff37002e
:100c2000850362000768a300080032000b50e10052
:100c300003003200f0ff2f00f1ff2700dcff370038
:100c40000001fd008101fd00d9ff37000468a30009
:100c5000d7ff3200faff3700f8ff270088836000d3
:100c60000b003a000000e00009003a008303640032
:100c700082837300020032000200be00ccff370006
:100c80000b50e100ceff3a000200be00c8ff370063
:100c900014002000810064003eff3700f8ff2700a9
:100ca0008883610004003a000200e00002003a007c
:100cb0008c007800beff370015002000830164001f
:100cc00039ff370001f8270000002000810075007f
:100cd000b7ff3700889fbe008a9fbe008c9fbe0072
:100ce0001b0020000202be000586680006002800e6
:100cf000060666004709de00f20fb20082003200ed
:100d00000243e80080003200c729de00f30fb20082
:100d10007d0032000343e8007b003200f107b2009f
:100d20000170a000f507b2000570a000c708dd0043
:100d30004903de00868070004700dd00c72add0021
:100d40004923de00868272004722dd000305510040
:100d50000403500085835800030031000000400068
:100d6000818048000a05e9008c1f78008a9fbe0038
:100d700004005000858058000402420085824a0029
:100d800000004000818048000005eb000004be0028
:100d90006033b8000406be000d48e1005600310083
:100da000110009004dccd8000c01b8000d02b800ac
:100db0008481410060824a008283530003045c0006
:100dc00084845c0060055d000a00e00025003a00b4
:100dd000800578000d40e10049003100880078006e
:100de00007007800110009004d88d8000c01b800f8
:100df0000d02b8008481410060824a006003110046
:100e000083835b0004045c00e0845c000900e00074
:100e100021003a004f01be000300e0002b00320029
:100e2000e3016000070673008c817100010032004d
:100e3000640070004200de004e5edd000c007000b9
:100e4000c258de0001e0a00083010700cf01780056
:100e5000818071004f06be004f05be004f04be00ea
:100e6000000006008c8343000d044c00e0844c001d
:100e700060054d000000e9000a00e000d4ff3200e8
:100e80008c8343000d044c00e0844c0060054d0051
:100e90000000e900ceff37000c0343008d834b00b8
:100ea00060044c00e0844c000000e9000900e00010
:100eb000d8ff32000c0343008d834b0060044c00cc
:100ec000e0844c000000e900d2ff37004200de0061
:100ed0004e5edd000c007000c258de0001e0a00094
:100ee000cf0178000300e000daff3200600010005c
:100ef000e0801800d7ff3700f0ff2f00aaff37006f
:100f0000f0ff2f00b9ff37000404be002f010700d7
:100f1000870678000004fd008104fd002b01070016
:100f2000078366000678a300030032000960a7006b
:100f30000800be002c0037000d78a300020032002c
:100f40000800be00280037000778a30026003a00fa
:100f500001f0a10009f0a1000668a300030032001f
:100f6000f1ff2700f0ff2f00baff37000d68a30044
:100f7000030032000800be008c807000b5ff37000f
:100f80000768a30007003a000648a30003003200e8
:100f9000f1ff2700f0ff2f00aeff37000d48a30040
:100fa000030032006000b8008c807000a9ff370099
:100fb0000748a3000400320001f8270000002000c9
:100fc0008c807000a3ff3700760107000004fd004d
:100fd0008104fd0002057800720107000802be00ce
:100fe0008a01780059ff37000160a000120220003a
:100ff0009280880097ff37000100e0001200320065
:101000000500e00010003200889fbe008a9fbe00ed
:101010008c9fbe000006eb0001f8a3000300320025
:1010200060001000e08018000cf0a00005f8a3009c
:101030000300320060021200e0821a000cf0a200ed
:101040008005eb0041ff37006000b800020005009a
:10105000038368000700280007036300470ade00d7
:101060000480a100c71ade000580a100f70f200050
:101070000720e100420032000728e1004000320072
:10108000889fbe008a9fbe008c1f7800f107b200c7
:10109000f307b2000400e000640032000170a00019
:1010a0000500e000680032000370a00085054200e2
:1010b000eb07b1000204b8000302b80084844400c6
:1010c00060854a00020ab800848444000a854a0008
:1010d000030ab80004054500040033000804d000ea
:1010e0008984d2000a85d2008b05e9006158e100ad
:1010f0003d003500021020000901610003082000b6
:1011000089816100f70720008783640008867300e7
:10111000c84cde00c853dd00878474004855de00eb
:101120000300e00006003200820376000400320073
:101130008904e80060054d000a88a3000c003a000d
:10114000f70f20000758e10044003d000a70a1009d
:10115000c75ddd000a8575008a007300090078000c
:101160004f0678004f05be004f04be000000060089
:101170000a05d1008984d3008b05e800f0ff370011
:10118000881f7800060478009000070007027800a6
:101190000001fd008101fd008c000700870278003e
:1011a000850372000778a300050032000001fd00ee
:1011b0008101fd009f0007004f0478000000060039
:1011c000850372000748a30003003200f0ff2f00e0
:1011d000f1ff2700f8ff37000000200001f827008a
:1011e00088807000f4ff3700880178004848dd00ef
:1011f000808171004848de00c850dd0001007000a9
:10120000c850de00060478000b01780016000700c5
:1012100088807000d2ff37000500e0000500320032
:10122000170020003a0007009dff3700810370007f
:10123000f9ff3a00860078004f0678004f05be009f
:101240004f04be000000050083037100f9ff320067
:10125000270020002e00070094ff370001f8270028
:1012600086807000f4ff37000100e00026003200a5
:10127000610111007810e10023003c006022b800f9
:101280007010e10004003500800278000100780051
:101290008000eb00700151000200e0000900340002
:1012a00070031100062add00822ade008603dd00bd
:1012b000878272000200de00860bdd0007007000ee
:1012c0008208de0084817100f4ff2700048262003e
:1012d0008481710004002800848262006102600041
:1012e00005f0a6000000060004827100070032002d
:1012f0000000e800e0804800000006000002be0098
:101300006000b800efff37006000b8000000060082
:10131000889fbe000004eb006138e10016003a002f
:101320000100e00008003a00c800de004800dd00cf
:10133000880020000100e00003003a00c800de0041
:101340004800dd00680444008184cf00e984540033
:10135000060034008908dd00f08314008703de00f6
:10136000878070000900dd00090444006102140058
:101370004f04be00000006000300e00008003a0031
:10138000c811de004811dd00880020000300e000e5
:1013900003003a00c811de004811dd006804440073
:1013a0008384cf00e9845400060034008919dd00ed
:1013b000f08314008713de00878171000911dd00be
:1013c00009044400e1021400e9ff3700270020006f
:1013d00001f0a70017002000470bde00f60fb20057
:1013e000040032000643e8000a0032004702b3005e
:1013f0000000060001037800f607b2000603700043
:1014000002003a000703b300000006008702b300a1
:101410000000060001037800f607b2000603700022
:10142000020032000770a000000006000760a00064
:10143000000006000478a300040032000578a30031
:10144000030032000168a30001003a000200be0060
:101450000160a0000000060081017000270032003a
:101460008002eb0001f8a3000300320060001000ce
:10147000e080180015002000f4072000020242005e
:1014800020003400f70320008703600006042000da
:101490000003630002082000000161004700de0035
:1014a000c909dd0000807100c708de000600e00009
:1014b0000800320087037100060032001000b000ff
:1014c0000180b0000188a30002003200c108de00e4
:1014d0000402e800f107b200f30f20000320e1004e
:1014e00003003d004722dd00810072002900370023
:1014f00001f827000000eb00260037006000b8006c
:1015000000000600680212007f20e10002003400a3
:101510006000b8001f0037006011b8007020e100c3
:101520000400350080017800010078008000eb00a5
:10153000700252000400e00009003400f0031200c1
:101540000719dd008419de000703dd0086817100c4
:101550000400de00070bdd00060070008408de00da
:10156000f7ff2700838363008703710006002800cc
:1015700003036300070032000700e00003003a00a5
:101580006101600002817300020032001000b000af
:101590000180b0000500a6000000060001f0a000d8
:1015a000000006004f0ade004709de00f107b20026
:1015b000f20fb2000b003200f207b1000170a00080
:1015c000c708dd00c901de00838070004700dd0030
:1015d0000400a6000000060060001000e080180073
:1015e00000000600810f700001003a0000000600b4
:1015f0008182cf000500e00010003e008082cf0015
:10160000ee8242007028e1000400390007003e002d
:10161000800078000000eb000e003700708312009d
:101620008600de000500dd000a00370070835200ee
:101630008600dd000000eb0006003700e282520069
:101640008508dd00708312000603de0086807000ce
:101650000500dd007507b0000501ea000400a600e2
:101660000000060060001000e08018000000060086
:10167000889fbe008a9fbe005400f8000a00200028
:101680000a00e000070032000900200008002000e6
:10169000a9028800b805ba000b0001000a85e9001c
:1016a000fcff3c005400f9004f05be004f04be0093
:1016b00000000600889fbe008a9fbe005400f8000c
:1016c0000a0020000a00e000f6ff320009002000b6
:1016d00008002000eeff3700889fbe008a9fbe00f2
:1016e000841f78006c0007004f0078001100330061
:1016f000f0ff2f00838f6c0006003b00040565009f
:101700000a00a7000800370009f0a600100020001a
:1017100008003700820f5400838f5c0003003900fb
:101720001000200001003e000000200009f0a7008a
:101730000000ea004f05be004f04be000000e000bc
:1017400000000600889fbe008a9fbe0000827000d5
:101750000402710004827100260032000004be0001
:101760000200be006011b8006b0920009502200045
:101770000182cf000a0039000541b1000082cf008c
:10178000070039000541b1000982cf00040039008b
:101790000541b1000882cf00010039000541b100c8
:1017a00005425200120032000a003b0082817100a3
:1017b000610164008100d1000080d3008984d300de
:1017c0000884d3008b05e8000442e800f7ff3a00e4
:1017d000070037000804440089844c0000004800da
:1017e000818048008b05e9000442e900f9ff3a00d6
:1017f000030007004f05be004f04be0000000600b6
:1018000081002000618055000b003d000b0020008e
:1018100061fe2f000100e1001d0034008281710093
:10182000610164008904d1000884d3000000e8004d
:10183000faff3a00710020006100640003007000ac
:10184000020060000900320061044400e0844c00a2
:101850000988a500050032008b05e8006808e10052
:1018600002003a008904d1000884d300f20f20005e
:101870000258e10005003d00c75ddd00f907b20038
:101880008980750008007800000006000bf827002a
:101890008b007800000005000004be000afc070071
:1018a0000003be000405be000200be0006fc0700e7
:0818b000844f750000000600e2
:020000040000fa
:1018b8000000fa000ed0bf000080fb006100b900f4
:1018c8000001be00b000200001002000800f510080
:1018d800818f590061003e00020601000b003700ad
:1018e800150037001e003700280037002900370090
:1018f80032003700330037003c0037003d00370026
:101908004700370048003700520037000a30ef0020
:101918000c30ef000001eb006000b800e3030700a3
:10192800120020006000b800e003070010c0b300f8
:101938000ef0b7004c0037005280800063808000b2
:10194800803e200001002000800f5100818f590047
:101958004400360020c0b3000ef0b7004100370045
:101968000001eb000000200001172400cf0307004e
:10197800120020000000200001172400cb030700fc
:1019880030c0b3000ef0b700370037003900070049
:10199800350037000001eb0000002000011f240083
:1019a800c2030700120020006000b800bf03070050
:1019b80050c0b3000ef0b7002b0037002d00070011
:1019c800290037000001eb006000b800b7030700ea
:1019d8001200200000002000011f2400b3030700ac
:1019e80070c0b3000ef0b7001f00370021000700d9
:1019f8001d0037000001eb00000020000117240043
:101a0800aa030700120020000000200001172c0084
:101a1800a603070090c0b3000ef0b700120037000d
:101a280014000700100037000001eb000000200040
:101a380001172c009d030700120020000000200061
:101a48000117240099030700b0c0b3000ef0b700d7
:101a58000500370007000700030037000e70ef008d
:101a68000100370000000000000000000080fa00bc
:101a7800000006000200fa000040eb00004f78006a
:101a8800508180006181800002002000031f240033
:101a980049fb07000000e00003003d0030c0b30030
:101aa800004f780027003700708180008181800016
:101ab80002002000031f24003ffb07000000e00095
:101ac80003003d0010c0b300004f78001d00370030
:101ad80090818000a181800002002000031f240063
:101ae80035fb07000000e00003003d0040c0b300e4
:101af800004f78001300370030818000418180005a
:101b080002002000031f24002bfb07000000e00058
:101b180003003d0020c0b300004f780009003700e3
:101b2800b0818000c181800002002000031f2400d2
:101b380021fb07000000e00002003d0050c0b30098
:101b4800004f78001e4078000004e00003003a00cf
:101b580020c0b3000ff0b7001d0037001e4078000a
:101b6800e24f500003003a0040c0b3000ff0b70046
:101b7800170037001e407800e14f500003003a007c
:101b880060c0b3000ff0b700110037001e407800a6
:101b9800e34f500003003a0080c0b3000ff0b700d5
:101ba8000b0037001e407800e44f500003003a0055
:101bb80040c0b3000ff0b700050037001e407800a2
:101bc800e54f500002003a0060c0b3000ff0b700c4
:101bd8000fd0bf000080fb00e10021009140780099
:101be8008180fb008100e900810f50000200320073
:101bf8000fd0bf000ef0b700000000000080fa0010
:101c0800000006000600fa00881f7800c3030700da
:101c1800570407003801070042010700380207008f
:101c280009040700b701070084cea90084aea90003
:101c3800848ea900856ea900754ea900746ea9004e
:101c4800054ea90095eea900052ea900040ea900cd
:101c5800854ea8000e70ef00430207003c04070001
:101c6800e14f5000fcff3a003d0407003404070030
:101c7800000f78001e007800100078008000eb004c
:101c88000dfb07003233230033052400eefc070068
:101c980000017800010078008202780000027800d4
:101ca8000200200003582400050078008400780012
:101cb8000000be0005fc07001007980021079800e7
:101cc8001e019000ae019000000020008120240039
:101cd800fefb07000001780001007800820278000e
:101ce8000002780002002000030a240005007800a2
:101cf800840078000000be0006fb07008001780021
:101d08000101780003007800820078000000be001e
:101d180070818800818188001e80e80010007800aa
:101d28008000eb00e4fa0700323323003305240077
:101d3800c5fc0700000178000100780082027800e5
:101d480000027800020020000358240005007800f3
:101d5800840078000000be00dcfb07001007980034
:101d6800210798001e019000ae019000000020009d
:101d780081202400d5fb07000001780001007800cd
:101d8800820278000002780002002000030a240082
:101d980005007800840078000000be00ddfa070026
:101da8008001780001017800030078008200780043
:101db8000000be0050818800618188004100200039
:101dc8001e804000100078008000eb00bafa07007f
:101dd80032332300330524009bfc07000001780000
:101de80001007800820278000002780002002000da
:101df8000358240005007800840078000000be0025
:101e0800b2fb070010079800210798001e019000f8
:101e1800ae0190000000200081202400abfb0700e9
:101e28000001780001007800820278000002780042
:101e380002002000030a24000500780084007800ce
:101e48000000be00b3fa07008001780001017800a5
:101e580003007800820078000000be00308188000e
:101e680041818800610020001e8040001000780039
:101e78008000eb0090fa070032332300330524007a
:101e880071fc0700000178000100780082027800e8
:101e980000027800020020000358240005007800a2
:101ea800840078000000be0088fb07001007980037
:101eb800210798001e019000ae019000000020004c
:101ec8008120240081fb07000001780001007800d0
:101ed800820278000002780002002000030a240031
:101ee80005007800840078000000be0089fa070029
:101ef80080017800010178000300780082007800f2
:101f08000000be0090818800a18188008100200027
:101f18001e804000100078008000eb0066fa070081
:101f2800323323003305240047fc07000001780002
:101f38000100780082027800000278000200200088
:101f48000358240005007800840078000000be00d3
:101f58005efb070010079800210798001e019000fb
:101f6800ae019000000020008120240057fb0700ec
:101f780000017800010078008202780000027800f1
:101f880002002000030a240005007800840078007d
:101f98000000be005ffa07008001780001017800a8
:101fa80003007800820078000000be00b08188003d
:101fb800c1818800308180004181800018c0b30051
:101fc80002002000031f2400fbf907000000e000c6
:101fd800010035000044eb000880fb006100600050
:101fe8004b00dd002174800001b0a10001007000e9
:101ff80020748800508180006181800018c0b3007f
:1020080002002000031f2400ebf907000000e00095
:10201800010035000044eb000880fb00610060000f
:102028004400dd00217480000140a100010070001f
:1020380020748800708180008181800018c0b300fe
:1020480002002000031f2400dbf907000000e00065
:10205800010035000044eb000880fb0061006000cf
:102068004500dd00217480000150a10001007000ce
:102078002074880090818000a181800018c0b3007e
:1020880002002000031f2400cbf907000000e00035
:10209800010035000044eb000880fb00610060008f
:1020a8004a00dd00a173800001a0a10001007000ba
:1020b800a0738800b0818000c181800018c0b3007f
:1020c80002002000031f2400bbf907000000e00005
:1020d800010035000044eb000880fb00610060004f
:1020e8004600dd00217480000160a100010070003d
:1020f80020748800d8fe37000000fa0005e1a90026
:102108000421a9000068a9002068a80005e1a8002a
:1021180000002000a1472400060007000080fa0004
:10212800000006000000fa0013e1a9000080fa0090
:10213800000006000400fa00881f7800008fbe0027
:1021480021088000f0fc2f00008060002008880033
:102158001e0178009e019000001c2e0041c624003c
:10216800dafa070018c0b30002f02f00f377240052
:1021780093f907000000e00001003c000044eb0078
:102188000804e0005400320021088000f0fc2f0011
:10219800008060000040a000200888001e01780030
:1021a8009e019000001c2e0041c62400c7fa0700bb
:1021b8000200200003102400c4fa070018c0b3006e
:1021c80002f02f00f37724007df907000000e000fb
:1021d80001003c000044eb000804e000320032003b
:1021e80021088000f0fc2f00008060000050a00053
:1021f800200888001e0178009e019000001c2e0017
:1022080041c62400b1fa0700020020000328240078
:10221800aefa070018c0b30002f02f00f3772400cd
:1022280067f907000000e00001003c000044eb00f3
:102238000804e0001000320021088000000320009c
:1022480001007000200888001e0178009e0190009f
:10225800001c2e0041c624009cfa07000200200042
:102268000338240099fa070057f90700000078009e
:1022780010088800200037001e0178009e01900099
:10228800001c2e0041c6240090fa0700020020001e
:10229800032824008dfa07004bf907000000780096
:1022a80010088800140037001e0178009e01900075
:1022b800001c2e0041c6240084fa070002002000fa
:1022c8000310240081fa07003ff907000000780096
:1022d80010088800080037001e0178009e01900051
:1022e800001c2e0041c6240078fa070036f90700c2
:1022f80000007800100888004f0478000080fa0079
:10230800000006000000fa001fe1a9001e21a90034
:102318000368a9002368a80000002000a147240042
:10232800030007001fe1a8000080fa000000060073
:102338000400fa00881f7800008fbe00f1088000b2
:10234800f0fc2f0000806000f00888001e01780073
:102358009e019000001c2e0041c624005bfa070075
:1023680018c0b30002f02f00f377240014f9070017
:102378000000e00001003c000044eb000804e0001d
:1023880054003200f1088000f0fc2f00008060004b
:102398000040a000f00888001e0178009e0190000f
:1023a800001c2e0041c6240048fa07000200200045
:1023b8000310240045fa070018c0b30002f02f00ec
:1023c800f3772400fef807000000e00001003c005d
:1023d8000044eb000804e00032003200f1088000fd
:1023e800f0fc2f00008060000050a000f00888007a
:1023f8001e0178009e019000001c2e0041c624009a
:1024080032fa070002002000032824002ffa0700f0
:1024180018c0b30002f02f00f3772400e8f8070093
:102428000000e00001003c000044eb000804e0006c
:1024380010003200f1088000000320000100700045
:10244800f00888001e0178009e019000001c2e00f4
:1024580041c624001dfa07000200200003382400aa
:102468001afa0700d8f8070000007800d00888009a
:10247800200037001e0178009e019000001c2e00ed
:1024880041c6240011fa0700020020000328240096
:102498000efa0700ccf8070000007800d008880082
:1024a800140037001e0178009e019000001c2e00c9
:1024b80041c6240005fa070002002000031024008a
:1024c80002fa0700c0f8070000007800d00888006a
:1024d800080037001e0178009e019000001c2e00a5
:1024e80041c62400f9f90700b7f807000000780092
:1024f800d00888004f0478000080fa000000060029
:102508000000fa001160800080ff2f00008060004a
:10251800106088000096200020608800116180000b
:1025280000c02000010070001061880023cca800c2
:1025380023eca80030002000206188001162800090
:1025480000c02000010070001062880043cca80081
:1025580043eca800300020002062880001eca800ad
:102568000080fa00000006000000fa00889fbe0004
:10257800d4808000e5808000b0808000c180800029
:1025880018c0b3000001be000400be008af80700ae
:102598000000e000010035000044eb000804e00002
:1025a8000d003200b8808000c9808000d48080008f
:1025b800e580800020808000318080000001be001e
:1025c8000400be00dcf807000801be00fa0007009e
:1025d800d0808800e1808800d4808000e580800079
:1025e800b0808000c180800018c0b3000001be0028
:1025f8000400be0072f807000000e00001003c0083
:102608000044eb000804e0000d003200b8808000b0
:10261800c9808000d4808000e58080002080800010
:10262800318080000001be000400be00b9f8070038
:102638000801be00c8000700d0808800e18088003b
:10264800d0808000e180800018c0b3006011b8001d
:102658005bf807000000e00001003c000044eb00cc
:102668000804e00014003200d0808000e18080007f
:1026780002002000031c240073fa07000002be00b9
:1026880000808000118080000001be000400be00b0
:10269800a9f807006df8070000007800306188008d
:1026a800008080001180800068f807000000780032
:1026b800706188001400370000808000118080005d
:1026c80062f807000000780030618800d080800040
:1026d800e180800001f0a20002002000031c240019
:1026e80059fa07000002be000080800011808000b7
:1026f8000001be000400be008ff8070053f8070071
:1027080000007800706188001481800025818000b5
:10271800f08080000181800018c0b3000001be0075
:102728000400be0024f807000000e00001003500a6
:102738000044eb000804e0000d003200f88080003f
:10274800098180001481800025818000208080001c
:10275800318080000001be000400be0076f807004a
:102768000801be00940007001081880021818800bc
:102778001481800025818000f08080000181800024
:1027880018c0b3000001be000400be000cf807002a
:102798000000e00001003c000044eb000804e000f9
:1027a8000d003200f88080000981800014818000cb
:1027b8002581800020808000318080000001be00db
:1027c8000400be0053f807000801be0062000700bd
:1027d800108188002181880010818000218180007b
:1027e80018c0b3006011b800f5f707000000e0005a
:1027f80001003d000044eb000804e0001400320032
:10280800108180002181800002002000031c240028
:102818000dfa07000002be000080800011808000d1
:102828000001be000400be0043f8070007f80700d7
:1028380000007800306288000080800011808000ed
:1028480002f8070000007800706288001400370062
:102858000080800011808000fcf7070000007800ed
:1028680030628800108180002181800001f0a20080
:1028780002002000031c2400f3f907000002be0038
:1028880000808000118080000001be000400be00ae
:1028980029f80700edf7070000007800706288004b
:1028a8004f04be000080fa00000006000600fa008f
:1028b800008fbe00220798002e0090000000e00064
:1028c80006003a001e0078009e00900001f0a20069
:1028d800f080880001818800070037002e009000f2
:1028e800e10f500004003a001e0178009e0190009c
:1028f800b2808800c38088000080fa0000000600cb
:102908000400fa00881f7800008fbe0018c0b300ca
:102918006011b8001e0078009e009000a8f707001c
:102928000000e00001003d000044eb000804e00066
:10293800030032001e0078009e009000030037005c
:102948001e0078009e00900001f0a2004f0478005d
:102958000080fa00000006000800fa00881f7800ce
:10296800008fbe00220798003307980018c0b300f4
:102978002e019000be0190001e0078009e0090007d
:102988008ff707000000e00001003c000044eb0066
:102998000804e000030032001e0078009e0090004a
:1029a800020037002e009000be0090004f0478000f
:1029b8000080fa00000006000800fa00881f78006e
:1029c800008fbe00220798003307980018c0b30094
:1029d8002e019000be0190001e0078009e0090001d
:1029e80075f707000000e000010035000044eb0027
:1029f8000804e000030032001e0078009e009000ea
:102a0800020037002e009000be0090004f047800ae
:102a18000080fa00000006000c00fa00881f780009
:102a2800008fbe00220798003307980044079800db
:102a38005507980018c0b3004e019000de019000c1
:102a48001e0078009e0090005df707000000e0007f
:102a580001003c000044eb000804e00004003200e0
:102a68004e019000de019000028fbe000e0037007c
:102a780018c0b3002e019000be0190001e0078001f
:102a88009e0090004cf707000000e00001003500b0
:102a98000044eb000804e000030032002e0190001f
:102aa800be019000028fbe001e0078009e009000bc
:102ab8004f0478000080fa00000006000400fa00c5
:102ac800008fbe00b2fd2000930424001e00780091
:102ad8009e0090007df80700020020004333240088
:102ae80059f907000080fa00000006000400fa0007
:102af800008fbe00b2fd2000930424001e00780061
:102b08009e00900050f90700020020004333240083
:102b18006ef807000080fa00000006000000fa00c6
:102b2800413a800000fc2f00008060007001b30073
:102b3800403a8800313a800000e02f008080600031
:102b48008005200001007000303a8800213a80009a
:102b5800f0f32f0000806000203a8800213a8000be
:102b680000fe2f00008060000000a000203a8800ce
:102b78001200200080072000a109200033742000e3
:102b8800804978008149780082497800103a8000ad
:102b9800000178000200a0006004200071052000f8
:102ba80023742000804978008149780082497800a0
:102bb80000000000113a80000000270080806000bb
:102bc80000002100808f5000faff3a005927a80022
:102bd800c13a800080ff2f00008060000000a00044
:102be800c03a8800d03a80007000b300d03a88001c
:102bf800c13a8000f0f12f0080806000000c2000b6
:102c080001007000c03a880059a7a80059e7a80039
:102c180000000000c13a800000002400008060002d
:102c28000000e000fbff320000000000113a8000c5
:102c380000022000008060000000e000fbff32007e
:102c48000080fa00000006000000fa0021e3a90055
:102c58002143a80001198000f0cf2f0000806000f8
:102c6800001988002043a90001198000000e2000e7
:102c7800010070000019880011198000f0ff210080
:102c880000806000101988002343a80011198000f3
:102c9800f0cf2f0000806000101988001119800003
:102ca80030f82f00008060000040a0001019880054
:102cb8002203a9002223a90025e3a900f0c0b3003c
:102cc80024e3b70021198000f00f2e0080806000f7
:102cd80000f0200001007000201988003303a900cb
:102ce8001f0ea8001f2ea8001f6ea8001e0ea80009
:102cf8001f4ea8003103a8003123a8003163a800a3
:102d08003003a8003143a8004119800000fe2f00bd
:102d1800008060004019880028e3a90001a8a900e4
:102d280021a8a80021e3a8000080fa0000000600fe
:102d38000000fa002023a8000080fa000000060026
:102d48000000fa00a00321000080fa00000006003d
:102d58000000fa0011d0bf000080fa000000060051
:102d68000000fa001170ef000080fa000000060071
:102d78000000fa000e2eef001e2eef003e2eef0090
:102d88002e2eef004e2eef006e2eef0080cea90003
:102d980080aea900808ea900816ea900714ea9009d
:102da800706ea90091eea900012ea900014ea9009c
:102db800000ea900814ea9000c00070002000700c0
:102dc8000080fa00000006000000fa0021742000cc
:102dd8006204200073052000824878008348780048
:102de80042c7a8000080fa00000006000000fa00b0
:102df80021742000620420007305200082487800b6
:102e08008348780042c7a9000080fa000000060045
:020000040000fa
:102e18000e100000020000008000000008100000f2
:102e280006000000800000001410000026000000ca
:102e38008000000000100000080000008200000070
:102e48000000480042000000a04000003a100000c6
:102e58000a000000800000001010000002000000be
:102e68008000000044100000020000008200000002
:102e780001000000121000000200000080000000a5
:042e88000000000046
:020000040000fa
:0200000401f009
:04000800cfffff0027
:020000040000fa
:0200000401f009
:04000c00f9ffff00f9
:020000040000fa
:0200000401f009
:040010005bffff0093
:020000040000fa
:0200000401f009
:040014007fffff006b
:020000040000fa
:0200000401f009
:04001800cfffff0017
:020000040000fa
:0200000401f009
:04001c00deffff0004
:020000040000fa
:0200000401f009
:04002000cfffff000f
:00000001FF
